:020000040000FA
:060000000A128A1110280B
:10000800FE00030E83120313AE000A08AF007F0838
:10001800B0000A128A1125280A128A11132883129D
:100028000313A001A101A201A301A401A501A60136
:10003800A701A801A901AA01AB0183010A128A112B
:100048002C290B1C282829286B28FE300606031D9E
:100058002E282F283328A901A801A80A6A28FD30CC
:100068000606031D382839283E28A901A90AA8012F
:10007800A80A6A28FB300606031D43284428492895
:100088000230FF007F08A9003028F7300606031D5C
:100098004E284F2854280330FF007F08A900302835
:1000A800EF300606031D59285A285F280430FF0040
:1000B8007F08A9003028DF300606031D642865285C
:1000C8006A280530FF007F08A90030280B108C1E15
:1000D8006E286F2882288C12051431301A06031DE9
:1000E800762877287A2821089900822832301A063B
:1000F800031D7F288028812882281A080B1D85283F
:1001080086288D280B11E13081000130FF007F081F
:10011800A3070C1F9028912823290C131F0CAC004F
:100128002C0C0F39003A031D9A289B28B628023058
:10013800F6000030F7001E08AC00AD012C08F800EE
:100148002D08F9000A128A11F2210A128A1176087A
:10015800FF007F0883120313AB001F08C33904385C
:100168009F0019291F0CAC002C0C0F39013A031DF4
:10017800BE28BF28DA280230F6000030F7001E0833
:10018800AC00AD012C08F8002D08F9000A128A11FC
:10019800F2210A128A117608FF007F0883120313DE
:1001A800AA001F08C33908389F0019291F0CAC0082
:1001B8002C0C0F39023A031DE228E3280929FF30E5
:1001C800F6000030F7001E08AC00AD012C08F00066
:1001D8002D08F1001330F2000030F3000A128A11E2
:1001E800CD220A128A117108F9007008F8000A1263
:1001F8008A11F2210A128A117608FF007F088312F9
:100208000313A100C3309F0519291F0CAC002C0C47
:100218000F39033A031D1129122919291E08FF0055
:100228007F08A000C3309F051929203083120313CB
:10023800AC00AC0B1D290000831203139F14300877
:10024800FF002F088A002E0E8300FE0E7E0E090086
:10025800831603130F168F160F170114811001153B
:1002680081128111E8308B00E13083120313810081
:100278008316031398161812831203139817181667
:10028800831603138C16831203138C120C308316F7
:1002980003139900F93092003F3083120313970536
:1002A8001708F0390C3897001D08F0390C389D00F4
:1002B80095019B01CF3097051D129D128C101214C9
:1002C80092141215831603130C17831203130C13BD
:1002D800831603139F131F121F12831203131F1376
:1002E8009F171F14203083120313B100B10B7A2912
:1002F8000000831203139F1483160313811315142C
:100308009514151595151516951615171614961492
:10031800161596151616961616170B108B150F3000
:100328008316031788008901FF308316031385009D
:1003380080308700880189018312031386018701B1
:10034800880189010230FF007F08A900A801A501E2
:10035800A50A0A128A114F230A128A110A128A114F
:10036800A4220A128A110A128A1159220A128A111F
:10037800831203132703031DC229C329CE29260884
:10038800031DC729C829CE290A128A1114230A1263
:100398008A11AD292708031DD229D329DE2926036E
:1003A800031DD729D829DE290A128A11F2220A1236
:1003B8008A11AD292708031DE229E329EE29260819
:1003C800031DE729E829EE290A128A1136230A12A1
:1003D8008A11AD29AD290A128A111028FB01F71FCD
:1003E800F629F729FE29F609F709F60A0319F70A83
:1003F800FB01FB0AF91F012A022A0B2AF809F9094D
:10040800F80A0319F90A0130FF007F08FB06FC010E
:10041800FD01760877040319122A132A4A2AFA01D9
:10042800FA0A212A01300310F60DF70DFF3E031DCD
:10043800172A0130FF007F08FA07F71F242A252A08
:10044800162A01300310FC0DFD0DFF3E031D262A60
:1004580077087902031D322A76087802031C352AA8
:10046800362A3D2A7608F8027708031CF903F902B0
:100478007C1401300310F70CF60CFF3E031D3E2AD6
:100488000130FA02031D492A4A2A252A7B08031942
:100498004E2A4F2A542AFC09FD09FC0A0319FD0AB1
:1004A8007D08F7007C08F600080083120313280370
:1004B800031D5F2A602AA32A2908031D642A652AC6
:1004C8006E2A061C682A692A6E2AA701A70AA601AD
:1004D800A801A32A2903031D722A732A782AA701CF
:1004E800A601A60AA801A32A02302906031D7D2A0F
:1004F8007E2A822AA701A601A801A32A0330290679
:10050800031D872A882A8A2AA801A32A04302906D3
:10051800031D8F2A902A932AA401A40A882A053049
:100528002906031D982A992AA32A2503031D9D2A13
:100538009E2AA02AA501882AA501A50A882A0800BA
:10054800831203132408031DAA2AAB2AAF2A950194
:100558002A089B00CC2A2503031DB32AB42ABE2AE5
:100568002403031DB82AB92ABE2A2A0895002A0896
:100578009B00CC2A2508031DC22AC32ACC2A24039F
:10058800031DC72AC82ACC2A2B0895002A089B00D5
:100598000800F401F501701CD22AD32AD92A72085E
:1005A800F4070318F50A7308F50701300310F20D74
:1005B800F30DFF3E031DDA2A01300310F10CF00C95
:1005C800FF3E031DE12A70087104031DEC2AED2A81
:1005D800CF2A7508F1007408F0000800831203138D
:1005E8000719F72AFB2A831203138814FE2A831299
:1005F800031388108718012B052B83120313881502
:10060800082B831203138811081008180C2B102BC1
:10061800831203130815132B831203130811080000
:10062800831203130719192B1D2B831203130814A4
:10063800202B8312031308108718232B272B8312D0
:10064800031308152A2B831203130811881088181E
:100658002E2B322B831203138815352B8312031389
:100668008811080083120313881088183C2B402B2C
:10067800831203138815432B831203138811081060
:100688000818472B4B2B8312031308154E2B831284
:100698000313081108008312031323082106031DFE
:1006A800562B572B592B0813612B13302302031C8D
:0C06B8005E2B5F2B612B0817A3010800CC
:04400E00D520FF3F7B
:00000001FF
