:020000040000FA
:060000000A128A1110280B
:10000800FE00030EFA000A08FB00831203137F08A0
:10001800FC000A128A11B3280A128A111328FD015A
:1000280083120313A001A101A201A301A40183016A
:100038000A128A111F28831603130F168F160F171B
:10004800E8308B00F93092003F3083120313970594
:100058001708F0390C3897001D08F0390C389D0046
:1000680095019B01CF3097051D129D128C1012141B
:1000780092141215831603130C17831203130C130F
:10008800831603139F131F121F12831203131F13C8
:100098009F171F14203083120313A500A50B5228A5
:1000A8000000831203139F1483160313811315147E
:1000B8009514161496140B108B1507308316031716
:1000C80088008901FF3083160313850087018801A2
:1000D80089018312031386018701880189010A12A5
:1000E8008A1113220A128A110A128A1191210A12FC
:1000F8008A11831203132103031D832884288F2860
:100108002008031D882889288F280A128A11D821D7
:100118000A128A1173282108031D932894289F28FE
:100128002003031D982899289F280A128A11B621AE
:100138000A128A1173282108031DA328A428AF28AE
:100148002008031DA828A928AF280A128A11FA2115
:100158000A128A11732873280A128A1110280B1C94
:10016800B628B728E328A201A20A0618BC28BD2889
:10017800BF28FD01E2288618C228C328C728FD0128
:10018800FD0A0817E2280619CA28CB28D028023009
:10019800FF007F08FD00E2288619D328D428D92833
:1001A8000330FF007F08FD00E228061ADC28DD285E
:1001B800E2280430FF007F08FD00E2280B100C1F26
:1001C800E628E72821290C131F0CF800780C0F39B2
:1001D800003A031DF028F1280A290230F000003007
:1001E800F1001E08F800F9017808F2007908F30018
:1001F8000A128A112A210A128A117008FF007F0840
:1002080083120313A400C3309F051A291F0CF8009A
:10021800780C0F39013A031D1229132918291F08D0
:10022800C33908389F001A29C3309F052130F800C8
:10023800F80B1C29831203139F147C08FF007B080A
:100248008A007A0E8300FE0E7E0E0900F501F11F6A
:100258002E292F293629F009F109F00A0319F10A84
:10026800F501F50AF31F39293A294329F209F30957
:10027800F20A0319F30A0130FF007F08F506F601B8
:10028800F7017008710403194A294B298229F401DE
:10029800F40A592901300310F00DF10DFF3E031D3A
:1002A8004F290130FF007F08F407F11F5C295D2901
:1002B8004E2901300310F60DF70DFF3E031D5E2990
:1002C80071087302031D6A2970087202031C6D29E4
:1002D8006E2975297008F2027108031CF303F302F2
:1002E800761401300310F10CF00CFF3E031D762943
:1002F8000130F402031D812982295D29750803193B
:10030800862987298C29F609F709F60A0319F70AB5
:100318007708F1007608F00008008312031322031F
:10032800031D97299829B5297D08031D9C299D2916
:10033800A129A101A10AA001B4297D03031DA529B2
:10034800A629AA29A101A001A00AB42902307D0684
:10035800031DAF29B029B4298816A101A001B42929
:10036800A2010800831203130719BB29BF298312AE
:1003780003138814C2298312031388108818C52907
:10038800C929831203138815CC29831203138811F2
:1003980008100818D029D429831203130815D7295F
:1003A8008312031308110800831203130719DD29A8
:1003B800E129831203130814E42983120313081094
:1003C8000818E729EB29831203130815EE2983126D
:1003D8000313081188108818F229F62983120313C9
:1003E8008815F9298312031388110800831203134F
:1003F80088108818002A042A831203138815072AEC
:10040800831203138811081008180B2A0F2A831265
:1004180003130815122A8312031308110800831204
:0A0428000313240895009B0108004F
:04400E00D520FF3F7B
:00000001FF
