:020000040000FA
:060000000A128A1110280B
:10000800FE00030EFA000A08FB00831203137F08A0
:10001800FC000A128A11C6280A128A111328FD0147
:1000280083120313A001A101A201A301A401A50148
:10003800A60183010A128A112128831603130F16B9
:100048008F160F17E8308B00F93092003F3083127B
:10005800031397051708F0390C3897001D08F03975
:100068000C389D0095019B01CF3097051D129D12FC
:100078008C10121492141215831603130C17831282
:1000880003130C13831603139F131F121F128312DB
:1000980003131F139F171F14203083120313A70085
:1000A800A70B54280000831203139F14831603130D
:1000B80081131514951415159515151695161517FC
:1000C80016149614161596151616961616170B105E
:1000D8008B150F308316031788008901FF308316AC
:1000E80003138500870188018901831203138601A0
:1000F8008701880189010230FF007F08FD00A40103
:10010800A101A10A0A128A111B220A128A110A12D3
:100118008A11D0210A128A11831203132303031DA3
:1001280096289728A2282208031D9B289C28A228E5
:100138000A128A1166220A128A1186282308031DC8
:10014800A628A728B2282203031DAB28AC28B2286A
:100158000A128A1144220A128A1186282308031DCA
:10016800B628B728C2282208031DBB28BC28C228E5
:100178000A128A1188220A128A11862886280A12E7
:100188008A1110280B1CC928CA280C29FE3006061B
:10019800031DCF28D028D428FD01A401A40A0B29C7
:1001A800FD300606031DD928DA28DF28FD01FD0ADF
:1001B800A401A40A0B29FB300606031DE428E52840
:1001C800EA280230FF007F08FD00D128F730060634
:1001D800031DEF28F028F5280330FF007F08FD00F5
:1001E800D128EF300606031DFA28FB280029043021
:1001F800FF007F08FD00D128DF300606031D052912
:1002080006290B290530FF007F08FD00D1280B10B7
:100218000C1F0F29102960290C131F0CF800780CEB
:100228000F39003A031D19291A2935290230F0001F
:100238000030F1001E08F800F9017808F20079088A
:10024800F3000A128A1169210A128A117008FF0044
:100258007F0883120313A6001F08C33904389F00C0
:1002680059291F0CF800780C0F39013A031D3D2954
:100278003E2957290230F0000030F1001E08F8002E
:10028800F9017808F2007908F3000A128A11692145
:100298000A128A117008FF007F0883120313A50051
:1002A800C3309F055929C3309F052130F800F80B4A
:1002B8005B29831203139F147C08FF007B088A00C4
:1002C8007A0E8300FE0E7E0E0900F501F11F6D29DE
:1002D8006E297529F009F109F00A0319F10AF501E7
:1002E800F50AF31F782979298229F209F309F20A14
:1002F8000319F30A0130FF007F08F506F601F7013C
:1003080070087104031989298A29C129F401F40A9A
:10031800982901300310F00DF10DFF3E031D8E29C1
:100328000130FF007F08F407F11F9B299C298D29C4
:1003380001300310F60DF70DFF3E031D9D297108CE
:100348007302031DA92970087202031CAC29AD2988
:10035800B4297008F2027108031CF303F30276143F
:1003680001300310F10CF00CFF3E031DB5290130DC
:10037800F402031DC029C1299C2975080319C52940
:10038800C629CB29F609F709F60A0319F70A7708E7
:10039800F1007608F0000800831203132403031DFC
:1003A800D629D7291A2A7D08031DDB29DC29E52946
:1003B800061CDF29E029E529A301A30AA201A4015B
:1003C8001A2A7D03031DE929EA29EF29A301A201BD
:1003D800A20AA4011A2A02307D06031DF429F52970
:1003E800F929A301A201A4011A2A03307D06031DDD
:1003F800FE29FF29012AA4011A2A04307D06031DBB
:10040800062A072A0A2AA001A00AFF2905307D0624
:10041800031D0F2A102A1A2A2103031D142A152A3C
:10042800172AA101FF29A101A10AFF2908008312A7
:1004380003132008031D212A222A262A95012508AC
:100448009B00432A2103031D2A2A2B2A352A20032D
:10045800031D2F2A302A352A2508950025089B00D8
:10046800432A2108031D392A3A2A432A2003031D57
:100478003E2A3F2A432A2608950025089B000800A3
:10048800831203130719492A4D2A83120313881468
:10049800502A8312031388108718532A572A831265
:1004A800031388155A2A8312031388110810081891
:1004B8005E2A622A831203130815652A831203131E
:1004C800081108008312031307196B2A6F2A831275
:1004D80003130814722A8312031308108718752A45
:1004E800792A8312031308157C2A8312031308112F
:1004F80088108818802A842A831203138815872A6B
:1005080083120313881108008312031388108818B4
:100518008E2A922A831203138815952A83120313AD
:10052800881108100818992A9D2A831203130815A0
:0A053800A02A831203130811080023
:04400E00D520FF3F7B
:00000001FF
