:020000040000FA
:060000000A128A1110280B
:10000800FE00030E83120313AF000A08B0007F0836
:10001800B1000A128A1126280A128A11132883129B
:100028000313A001A101A201A301A401A501A60136
:10003800A701A801A901AA01AB01AC0183010A1219
:100048008A1133290B1D29282A2843280B11FF3030
:10005800810024082202031C322833283628081776
:10006800881738280813881314302402031C3D28E5
:100078003E283F28A4010130FF007F08A4070C1F79
:1000880046284728CC280C131F0CAD002D0C0F391F
:10009800003A031D502851286C280230F600003021
:1000A800F7001E08AD00AE012D08F8002E08F90073
:1000B8000A128A11F4210A128A117608FF007F08B1
:1000C80083120313AC001F08C33904389F00C228E9
:1000D8001F0CAD002D0C0F39013A031D742875282B
:1000E80090280230F6000030F7001E08AD00AE017F
:1000F8002D08F8002E08F9000A128A11F4210A12B4
:100108008A117608FF007F0883120313AB001F08CB
:10011800C33908389F00C2281F0CAD002D0C0F39B9
:10012800023A031D98289928C2281E08FF007F0854
:10013800A200FF30F6000030F7002208AD00AE0143
:100148002D08F0002E08F1000630F2000030F30010
:100158000A128A11CF220A128A117108F90070084E
:10016800F8000A128A11F4210A128A117608FF008F
:100178007F0883120313A200C3309F052030831227
:100188000313AD00AD0BC6280000831203139F14A0
:100198000B1CCF28D0281229FE300606031DD528AF
:1001A800D628DA28AA01A901A90A1129FD300606CC
:1001B800031DDF28E028E528AA01AA0AA901A90A3F
:1001C8001129FB300606031DEA28EB28F028023027
:1001D800FF007F08AA00D728F7300606031DF52878
:1001E800F628FB280330FF007F08AA00D728EF3045
:1001F8000606031D0029012906290430FF007F088F
:10020800AA00D728DF300606031D0B290C2911295F
:100218000530FF007F08AA00D7280B108C1E15296F
:1002280016292A298C1231301A06031D1C291D296A
:100238002029220899002A2932301A06031D252967
:1002480026292929210899002A291A083108FF0096
:1002580030088A002F0E8300FE0E7E0E09008316DA
:1002680003130F168F160F17011081140115811231
:100278008111E8308B00FF3083120313810083164D
:100288000313981618128312031398171816831657
:1002980003138C16831203138C120C30831603136A
:1002A8009900F93092003F3083120313970517081D
:1002B800F0390C3897001D08F0390C389D0095016D
:1002C8009B01CF3097051D129D128C1012149214A9
:1002D8001215831603130C17831203130C138316BA
:1002E80003139F131F121F12831203131F139F1749
:1002F8001F14203083120313B200B20B81290000AF
:10030800831203139F148316031381131514951472
:100318001515951515169516151716149614161500
:1003280096151616961616170B108B150F30831682
:10033800031788008901FF30831603138500803076
:1003480087008801890183120313860187018801C8
:1003580089010230FF007F08AA00A901A601A60AA8
:100368000A128A11A6220A128A110A128A115B221B
:100378000A128A11831203132803031DC429C529ED
:10038800D0292708031DC929CA29D0290A128A1188
:1003980016230A128A11B4292808031DD429D5293D
:1003A800E0292703031DD929DA29E0290A128A112D
:1003B800F4220A128A11B4292808031DE429E52920
:1003C800F0292708031DE929EA29F0290A128A11C8
:1003D80038230A128A11B429B4290A128A1110285A
:1003E800FB01F71FF829F929002AF609F709F60A87
:1003F8000319F70AFB01FB0AF91F032A042A0D2A2D
:10040800F809F909F80A0319F90A0130FF007F0809
:10041800FB06FC01FD01760877040319142A152A46
:100428004C2AFA01FA0A232A01300310F60DF70DB7
:10043800FF3E031D192A0130FF007F08FA07F71F46
:10044800262A272A182A01300310FC0DFD0DFF3E2D
:10045800031D282A77087902031D342A76087802B2
:10046800031C372A382A3F2A7608F8027708031C23
:10047800F903F9027C1401300310F70CF60CFF3E67
:10048800031D402A0130FA02031D4B2A4C2A272A51
:100498007B080319502A512A562AFC09FD09FC0A2F
:1004A8000319FD0A7D08F7007C08F600080083128E
:1004B80003132903031D612A622AA52A2A08031D9A
:1004C800662A672A702A061C6A2A6B2A702AA801DB
:1004D800A80AA701A901A52A2A03031D742A752AB7
:1004E8007A2AA801A701A70AA901A52A02302A0683
:1004F800031D7F2A802A842AA801A701A901A52A09
:1005080003302A06031D892A8A2A8C2AA901A52ACA
:1005180004302A06031D912A922A952AA501A50AC4
:100528008A2A05302A06031D9A2A9B2AA52A260309
:10053800031D9F2AA02AA22AA6018A2AA601A60A82
:100548008A2A0800831203132508031DAC2AAD2A42
:10055800B12A95012B089B00CE2A2603031DB52A34
:10056800B62AC02A2503031DBA2ABB2AC02A2B088B
:1005780095002B089B00CE2A2608031DC42AC52AED
:10058800CE2A2503031DC92ACA2ACE2A2C0895007B
:100598002B089B000800F401F501701CD42AD52A09
:1005A800DB2A7208F4070318F50A7308F507013007
:1005B8000310F20DF30DFF3E031DDC2A013003107A
:1005C800F10CF00CFF3E031DE32A70087104031DB3
:1005D800EE2AEF2AD12A7508F1007408F000080005
:1005E800831203130719F92AFD2A831203138814A7
:1005F800002B8312031388108718032B072B8312F1
:10060800031388150A2B831203138811081008187E
:100618000E2B122B831203130815152B83120313A9
:10062800081108008312031307191B2B1F2B8312B1
:1006380003130814222B8312031308108718252B81
:10064800292B8312031308152C2B8312031308116B
:1006580088108818302B342B831203138815372BF6
:100668008312031388110800831203138810881853
:100678003E2B422B831203138815452B8312031339
:10068800881108100818492B4D2B831203130815DD
:0A069800502B831203130811080011
:04400E00D420FF3F7C
:00000001FF
