:020000040000FA
:060000000A128A1110280B
:10000800FE00030E83120313AF000A08B0007F0836
:10001800B1000A128A1126280A128A11132883129B
:100028000313A001A101A201A301A401A501A60136
:10003800A701A801A901AA01AB01AC0183010A1219
:100048008A117B290B1D29282A2855280B11FF30D6
:10005800810024082202031C322833283528081777
:100068003628081314302402031C3B283C283D285A
:10007800A40123082102031C422843284528881785
:100088004628881314302302031C4B284C284D287B
:10009800A3010130FF007F08A4070130FF007F089B
:1000A800A3070C1F5828592814290C131F0CAD003E
:1000B8002D0C0F39003A031D622863287E28023070
:1000C800F6000030F7001E08AD00AE012D08F8005C
:1000D8002E08F9000A128A113C220A128A1176089F
:1000E800FF007F0883120313AC001F08C3390438CC
:1000F8009F000A291F0CAD002D0C0F39013A031D72
:1001080086288728A2280230F6000030F7001E084B
:10011800AD00AE012D08F8002E08F9000A128A1168
:100128003C220A128A117608FF007F088312031303
:10013800AB001F08C33908389F000A291F0CAD00FF
:100148002D0C0F39023A031DAA28AB28D7281E0800
:10015800FF007F08A200FF30F6000030F7002208F9
:10016800AD00AE012D08F0002E08F1000630F200B7
:100178000030F3000A128A1117230A128A11710833
:10018800F9007008F8000A128A113C220A128A1132
:100198007608FF007F0883120313A2001F08C339E3
:1001A8000C389F000A291F0CAD002D0C0F39033A9B
:1001B800031DDF28E0280A291E08FF007F08A10088
:1001C800FF30F6000030F7002108AD00AE012D0821
:1001D800F0002E08F1000630F2000030F3000A1299
:1001E8008A1117230A128A117108F9007008F80099
:1001F8000A128A113C220A128A117608FF007F0827
:1002080083120313A100C3309F050A2920308312EB
:100218000313AD00AD0B0E290000831203139F14C6
:100228000B1C172918295A29FE300606031D1D29FB
:100238001E292229AA01A901A90A5929FD30060661
:10024800031D272928292D29AA01AA0AA901A90AD3
:100258005929FB300606031D322933293829023073
:10026800FF007F08AA001F29F7300606031D3D2955
:100278003E2943290330FF007F08AA001F29EF30D9
:100288000606031D482949294E290430FF007F0826
:10029800AA001F29DF300606031D532954295929AE
:1002A8000530FF007F08AA001F290B108C1E5D294E
:1002B8005E2972298C1231301A06031D64296529BA
:1002C800682922089900722932301A06031D6D29FF
:1002D8006E2971292108990072291A083108FF002E
:1002E80030088A002F0E8300FE0E7E0E090083164A
:1002F80003130F168F160F170110811401158112A1
:100308008111E8308B00FF308312031381008316BC
:1003180003139816181283120313981718168316C6
:1003280003138C16831203138C120C3083160313D9
:100338009900F93092003F3083120313970517088C
:10034800F0390C3897001D08F0390C389D009501DC
:100358009B01CF3097051D129D128C101214921418
:100368001215831603130C17831203130C13831629
:1003780003139F131F121F12831203131F139F17B8
:100388001F14203083120313B200B20BC9290000D6
:10039800831203139F1483160313811315149514E2
:1003A8001515951515169516151716149614161570
:1003B80096151616961616170B108B150F308316F2
:1003C800031788008901FF308316031385008030E6
:1003D8008700880189018312031386018701880138
:1003E80089010230FF007F08AA00A901A601A60A18
:1003F8000A128A11EE220A128A110A128A11A322FB
:100408000A128A11831203132803031D0C2A0D2ACA
:10041800182A2708031D112A122A182A0A128A11D3
:100428005E230A128A11FC292808031D1C2A1D2A8A
:10043800282A2703031D212A222A282A0A128A1178
:100448003C230A128A11FC292808031D2C2A2D2A6C
:10045800382A2708031D312A322A382A0A128A1113
:1004680080230A128A11FC29FC290A128A111028F1
:10047800FB01F71F402A412A482AF609F709F60A1C
:100488000319F70AFB01FB0AF91F4B2A4C2A552AC4
:10049800F809F909F80A0319F90A0130FF007F0879
:1004A800FB06FC01FD017608770403195C2A5D2A26
:1004B800942AFA01FA0A6B2A01300310F60DF70D97
:1004C800FF3E031D612A0130FF007F08FA07F71F6E
:1004D8006E2A6F2A602A01300310FC0DFD0DFF3EC5
:1004E800031D702A77087902031D7C2A7608780292
:1004F800031C7F2A802A872A7608F8027708031CBB
:10050800F903F9027C1401300310F70CF60CFF3ED6
:10051800031D882A0130FA02031D932A942A6F2AA0
:100528007B080319982A992A9E2AFC09FD09FC0AC6
:100538000319FD0A7D08F7007C08F60008008312FD
:1005480003132903031DA92AAA2AED2A2A08031D31
:10055800AE2AAF2AB82A061CB22AB32AB82AA8019A
:10056800A80AA701A901ED2A2A03031DBC2ABD2A4E
:10057800C22AA801A701A70AA901ED2A02302A0662
:10058800031DC72AC82ACC2AA801A701A901ED2A58
:1005980003302A06031DD12AD22AD42AA901ED2A1A
:1005A80004302A06031DD92ADA2ADD2AA501A50A5C
:1005B800D22A05302A06031DE22AE32AED2A260359
:1005C800031DE72AE82AEA2AA601D22AA601A60AD2
:1005D800D22A0800831203132508031DF42AF52ADA
:1005E800F92A95012B089B00162B2603031DFD2ACB
:1005F800FE2A082B2503031D022B032B082B2B088F
:1006080095002B089B00162B2608031D0C2B0D2B81
:10061800162B2503031D112B122B162B2C089500C6
:100628002B089B000800F401F501701C1C2B1D2BE6
:10063800232B7208F4070318F50A7308F50701302D
:100648000310F20DF30DFF3E031D242B01300310A0
:10065800F10CF00CFF3E031D2B2B70087104031DD9
:10066800362B372B192B7508F1007408F000080099
:10067800831203130719412B452B83120313881484
:10068800482B83120313881087184B2B4F2B831288
:1006980003138815522B83120313881108100818A6
:1006A800562B5A2B8312031308155D2B8312031341
:1006B80008110800831203130719632B672B831291
:1006C800031308146A2B83120313081087186D2B61
:1006D800712B831203130815742B8312031308114B
:1006E80088108818782B7C2B8312031388157F2B8E
:1006F80083120313881108008312031388108818C3
:10070800862B8A2B8312031388158D2B83120313D0
:10071800881108100818912B952B831203130815BC
:0A072800982B831203130811080038
:04400E00D420FF3F7C
:00000001FF
