:020000040000FA
:060000000A128A1110280B
:10000800FE00030E83120313AF000A08B0007F0836
:10001800B1000A128A1126280A128A11132883129B
:100028000313A001A101A201A301A401A501A60136
:10003800A701A801A901AA01AB01AC0183010A1219
:100048008A117B290B1D29282A2855280B11F530E0
:10005800810024082202031C322833283528081777
:100068003628081314302402031C3B283C283D285A
:10007800A40123082102031C422843284528881785
:100088004628881314302302031C4B284C284D287B
:10009800A3010130FF007F08A4070130FF007F089B
:1000A800A3070C1F5828592814290C131F0CAD003E
:1000B8002D0C0F39003A031D622863287E28023070
:1000C800F6000030F7001E08AD00AE012D08F8005C
:1000D8002E08F9000A128A113F220A128A1176089C
:1000E800FF007F0883120313AC001F08C3390438CC
:1000F8009F000A291F0CAD002D0C0F39013A031D72
:1001080086288728A2280230F6000030F7001E084B
:10011800AD00AE012D08F8002E08F9000A128A1168
:100128003F220A128A117608FF007F088312031300
:10013800AB001F08C33908389F000A291F0CAD00FF
:100148002D0C0F39023A031DAA28AB28D7281E0800
:10015800FF007F08A200FF30F6000030F7002208F9
:10016800AD00AE012D08F0002E08F1000630F200B7
:100178000030F3000A128A111A230A128A11710830
:10018800F9007008F8000A128A113F220A128A112F
:100198007608FF007F0883120313A2001F08C339E3
:1001A8000C389F000A291F0CAD002D0C0F39033A9B
:1001B800031DDF28E0280A291E08FF007F08A10088
:1001C800FF30F6000030F7002108AD00AE012D0821
:1001D800F0002E08F1000630F2000030F3000A1299
:1001E8008A111A230A128A117108F9007008F80096
:1001F8000A128A113F220A128A117608FF007F0824
:1002080083120313A100C3309F050A2920308312EB
:100218000313AD00AD0B0E290000831203139F14C6
:100228000B1C172918295A29FE300606031D1D29FB
:100238001E292229AA01A901A90A5929FD30060661
:10024800031D272928292D29AA01AA0AA901A90AD3
:100258005929FB300606031D322933293829023073
:10026800FF007F08AA001F29F7300606031D3D2955
:100278003E2943290330FF007F08AA001F29EF30D9
:100288000606031D482949294E290430FF007F0826
:10029800AA001F29DF300606031D532954295929AE
:1002A8000530FF007F08AA001F290B108C1E5D294E
:1002B8005E2972298C1231301A06031D64296529BA
:1002C800682922089900722932301A06031D6D29FF
:1002D8006E2971292108990072291A083108FF002E
:1002E80030088A002F0E8300FE0E7E0E090083164A
:1002F80003130F168F160F170110811401158112A1
:100308008111E8308B00FD308312031381008316BE
:1003180003139816181283120313981718168316C6
:1003280003138C16831203138C120C3083160313D9
:100338009900F93092003F3083120313970517088C
:10034800F0390C3897001D08F0390C389D009501DC
:100358009B01CF3097051D129D128C101214921418
:100368001215831603130C17831203130C13831629
:1003780003139F131F121F12831203131F139F17B8
:100388001F14203083120313B200B20BC9290000D6
:10039800831203139F1483160313811315149514E2
:1003A8001515951515169516151716149614161570
:1003B80096151616961616170B108B150F308316F2
:1003C800031788008901FF308316031385008030E6
:1003D8008700880189018312031386018701880138
:1003E80089010230FF007F08AA00A901A601A60A18
:1003F8008312031308160A128A11F1220A128A11AB
:100408000A128A11A6220A128A11831203132803D8
:10041800031D0F2A102A1B2A2708031D142A152A30
:100428001B2A0A128A1161230A128A11FC29280838
:10043800031D1F2A202A2B2A2703031D242A252AC5
:100448002B2A0A128A113F230A128A11FC2928082A
:10045800031D2F2A302A3B2A2708031D342A352A50
:100468003B2A0A128A1183230A128A11FC29FC29C1
:100478000A128A111028FB01F71F432A442A4B2A23
:10048800F609F709F60A0319F70AFB01FB0AF91F2F
:100498004E2A4F2A582AF809F909F80A0319F90ABD
:1004A8000130FF007F08FB06FC01FD017608770498
:1004B80003195F2A602A972AFA01FA0A6E2A01307C
:1004C8000310F60DF70DFF3E031D642A0130FF00EF
:1004D8007F08FA07F71F712A722A632A013003106E
:1004E800FC0DFD0DFF3E031D732A77087902031DDD
:1004F8007F2A76087802031C822A832A8A2A7608A9
:10050800F8027708031CF903F9027C140130031080
:10051800F70CF60CFF3E031D8B2A0130FA02031D6F
:10052800962A972A722A7B0803199B2A9C2AA12AB1
:10053800FC09FD09FC0A0319FD0A7D08F7007C087F
:10054800F6000800831203132903031DAC2AAD2A01
:10055800F02A2A08031DB12AB22ABB2A061CB52A8A
:10056800B62ABB2AA801A80AA701A901F02A2A03CA
:10057800031DBF2AC02AC52AA801A701A70AA901E5
:10058800F02A02302A06031DCA2ACB2ACF2AA8013C
:10059800A701A901F02A03302A06031DD42AD52A67
:1005A800D72AA901F02A04302A06031DDC2ADD2AED
:1005B800E02AA501A50AD52A05302A06031DE52A41
:1005C800E62AF02A2603031DEA2AEB2AED2AA601C9
:1005D800D52AA601A60AD52A0800831203132508DE
:1005E800031DF72AF82AFC2A95012B089B00192BD2
:1005F8002603031D002B012B0B2B2503031D052BA5
:10060800062B0B2B2B0895002B089B00192B260873
:10061800031D0F2B102B192B2503031D142B152B32
:10062800192B2C0895002B089B000800F401F501F4
:10063800701C1F2B202B262B7208F4070318F50AB1
:100648007308F50701300310F20DF30DFF3E031D8B
:10065800272B01300310F10CF00CFF3E031D2E2B4D
:1006680070087104031D392B3A2B1C2B7508F100F7
:100678007408F0000800831203130719442B482B51
:100688008312031388144B2B8312031388108718C3
:100698004E2B522B831203138815552B83120313E9
:1006A800881108100818592B5D2B8312031308159D
:1006B800602B831203130811080083120313071910
:1006C800662B6A2B8312031308146D2B83120313F2
:1006D80008108718702B742B831203130815772BB7
:1006E800831203130811881088187B2B7F2B831221
:1006F80003138815822B83120313881108008312B1
:10070800031388108818892B8D2B831203138815DF
:10071800902B83120313881108100818942B982B18
:100728008312031308159B2B831203130811080067
:04400E00D420FF3F7C
:00000001FF
